:100000000C945D000C94DF0A0C94B80A0C94060B57
:100010000C94060B0C94060B0C9485000C94850034
:100020000C9485000C9485000C9485000C9485003C
:100030000C9485000C9485000C9485000C9485002C
:100040000C946E0A0C9485000C943C0A0C94160ACD
:100050000C9485000C9485000C9485000C9485000C
:100060000C9485000C94850000000008000201003B
:100070000003040700000000000000000000000072
:10008000250028002B0000000000240027002A0083
:10009000040404040404040402020202020203032E
:1000A0000303030301020408102040800102040836
:1000B0001020010204081020100B11241FBECFEFE6
:1000C000D8E0DEBFCDBF24E0A4E6B1E001C01D92C0
:1000D000AE3CB207E1F711E0A0E0B1E0E6E7F0E204
:1000E00002C005900D92A436B107D9F710E0CDE516
:1000F000D0E004C02197FE010E943310CC35D10717
:10010000C9F70E94AB0B0C9439100C940000AF920D
:10011000BF92CF92DF92EF92FF920F931F93CF93F4
:10012000DF936C017B018B01040F151FEB015E0156
:10013000AE18BF08C017D10759F06991D601ED91EB
:10014000FC910190F081E02DC6010995892B79F78A
:10015000C501DF91CF911F910F91FF90EF90DF903C
:10016000CF90BF90AF900895FC01538D448D252F03
:1001700030E0842F90E0821B930B541710F0CF9641
:10018000089501970895FC01918D828D981761F073
:10019000A28DAE0FBF2FB11D5D968C91928D9F5F8A
:1001A0009F73928F90E008958FEF9FEF0895FC0169
:1001B000918D828D981731F0828DE80FF11D858D1C
:1001C00090E008958FEF9FEF0895FC01918D228DAF
:1001D000892F90E0805C9F4F821B91098F73992734
:1001E00008958AEA93E00E94E50021E0892B09F452
:1001F00020E0822F089580E090E0892B29F00E9472
:10020000F10081110C9400000895FC01A48DA80F49
:10021000B92FB11DA35ABF4F2C91848D90E0019648
:100220008F739927848FA689B7892C93A089B18968
:100230008C91837080648C93938D848D981306C009
:100240000288F389E02D80818F7D80830895EF926D
:10025000FF920F931F93CF93DF93EC0181E0888F80
:100260009B8D8C8D98131AC0E889F989808185FF50
:1002700015C09FB7F894EE89FF896083E889F989F2
:1002800080818370806480839FBF81E090E0DF91F4
:10029000CF911F910F91FF90EF900895F62E0B8D47
:1002A00010E00F5F1F4F0F731127E02E8C8D8E1102
:1002B0000CC00FB607FCFACFE889F989808185FF69
:1002C000F5CFCE010E940501F1CFEB8DEC0FFD2F94
:1002D000F11DE35AFF4FF0829FB7F8940B8FEA8924
:1002E000FB8980818062CFCF6FEF8AEA93E00C9424
:1002F0002701CF93DF93EC01888D8823B9F0AA8979
:10030000BB89E889F9898C9185FD03C0808186FDD0
:100310000DC00FB607FCF7CF8C9185FFF2CF80811F
:1003200085FFEDCFCE010E940501E9CFDF91CF918E
:10033000089590E0FC01E859FF4F2491FC01EC5531
:10034000FF4F3491FC01E057FF4FE491EE23C9F0D9
:10035000222339F0233001F1A8F4213019F12230A1
:1003600029F1F0E0EE0FFF1FE458FF4FA591B49183
:100370008FB7F894EC91611126C030953E233C93E1
:100380008FBF08952730A9F02830C9F0243049F7ED
:10039000809180008F7D03C0809180008F77809353
:1003A0008000DFCF84B58F7784BDDBCF84B58F7DB0
:1003B000FBCF8091B0008F778093B000D2CF809137
:1003C000B0008F7DF9CF3E2BDACF3FB7F894809104
:1003D000710390917203A0917303B091740326B5D9
:1003E000A89B05C02F3F19F00196A11DB11D3FBF6D
:1003F000BA2FA92F982F8827BC01CD01620F711D3C
:10040000811D911D42E0660F771F881F991F4A9535
:10041000D1F70895CF92DF92EF92FF920E94E5010B
:100420006B017C018091640190916501A09166014E
:10043000B0916701A7019601281B390B4A0B5B0B92
:10044000293883E1380741055105B0F060E077E8CD
:1004500083E993E00E94DE0F2093A2033093A3036D
:100460004093A4035093A503C0926401D092650108
:10047000E0926601F0926701FF90EF90DF90CF90DD
:1004800008958F929F92AF92BF92CF92DF92EF9298
:10049000FF924B015C010E94E5016B017C010E940F
:1004A000E5016C197D098E099F09683E734081053D
:1004B0009105A8F321E0821A9108A108B10888EEFD
:1004C000C80E83E0D81EE11CF11C81149104A10424
:1004D000B10429F7FF90EF90DF90CF90BF90AF90DD
:1004E0009F908F90089581E08093930362E070E085
:1004F00080E090E00C94410281E08093940362E0FC
:1005000070E080E090E00C94410281E080939503DC
:1005100062E070E080E090E00C9441020895209148
:100520006801211109C021E020936801309147043E
:10053000209148043CBD2DBD60E0FC0184810C94F9
:10054000990161E0FC0184810E9499018091680118
:1005500081111092680108958EBD00000DB407FE50
:10056000FDCF8EB508958FEF0C94AC020F931F93BF
:10057000CF93DF938C012FB7F8948091A6039091CD
:10058000A703A091A803B091A9032FBFEC010E947B
:10059000B3028F3FB1F02FB7F8948091A6039091EA
:1005A000A703A091A803B091A9032FBF8C1B9D0B9B
:1005B0008017910760F380E0DF91CF911F910F9139
:1005C000089581E0F9CFCF92DF92EF92FF920F93DF
:1005D0001F93CF93DF93EC01162F69017A018E816F
:1005E000882389F08F8198859C012F5F3F4F388742
:1005F0002F838230924018F40E94B302F3CFCE01D1
:100600000E94A1021E82CE010E948F028CE291E024
:100610000E94B602812F80640E94AC0208E110E0C3
:10062000D701C601002E04C0B695A795979587956A
:100630000A94D2F70E94AC0208501109083F8FEFCC
:10064000180771F78FEF0E94AC0210E00E94B3020E
:100650008A8787FF04C01F3F11F01F5FF7CFDF912C
:10066000CF911F910F91FF90EF90DF90CF90089561
:10067000CF92DF92EF92FF920F93CF93DF93EC0133
:10068000690182E1411551056105710599F08B857C
:10069000833039F089E0440F551F661F771F8A9514
:1006A000D1F79A01AB0168E1CE010E94E3028823F1
:1006B00019F084E08D832DC08EEF0E94AC0276018C
:1006C0008EEFD81AF70181917F010E94AC02EC14E1
:1006D000FD04C1F78FEF0E94AC028FEF0E94AC02C5
:1006E0000E94B3028A878F71853071F4011116C0A0
:1006F000CE010E94A10281E0DF91CF910F91FF9086
:10070000EF90DF90CF90089581E18D83CE010E941C
:10071000A102CE010E94A10280E0EECF88E592E026
:100720000E94B602811102C085E1C4CF20E030E012
:10073000A9016DE0CE010E94E302882311F084E15B
:10074000B9CF0E94B3028111FACFD2CF0F9340915B
:100750006A0150916B0160916C0170916D014115BE
:1007600051056105710589F0082F2EE631E090E012
:1007700080E00E943803882349F010926A011092A9
:100780006B0110926C0110926D0181E00F91089540
:100790000F93CF93C82F80916901811105C0C1E0EB
:1007A0008C2FCF910F91089540910001509101013C
:1007B00060910201709103010C2F2EE631E090E070
:1007C00080E00E943803811102C0C0E0E9CFCC2351
:1007D00031F381E00E94A6038823B9F310926901E6
:1007E000DFCFAF92BF92CF92DF92EF92FF921F9333
:1007F000CF93DF936B017C01142F809100019091C6
:100800000101A0910201B09103018C159D05AE0577
:10081000BF0509F4BFC081E00E94C8038823E1F14D
:10082000809106008823A1F0809100009091010042
:10083000A0910200B0910300C816D906EA06FB0693
:1008400039F48091070090910800892B09F461C068
:10085000C0920000D0920100E0920200F0920300EA
:1008600080910B00A7019601833039F099E0220FA7
:10087000331F441F551F9A95D1F761E190E080E046
:100880000E94E302882391F083E08093050090E0CA
:1008900080E00E94A10280E0DF91CF911F91FF9044
:1008A000EF90DF90CF90BF90AF9008952FB7F8945E
:1008B0008091A6039091A703A091A803B091A903EA
:1008C0002FBFEC010E94B30280930A008F3FC1F456
:1008D0002FB7F8948091A6039091A703A091A80345
:1008E000B091A9032FBF8C1B9D0B8D32914050F30B
:1008F0008FE08093050090E080E00E94A102C7CFC6
:100900008E3FC1F5109208001092070081E080939D
:100910000600CEE6D1E08EE6A82E83E0B82E0E9437
:10092000B3028993AC16BD06D1F780910700909170
:1009300008009E5F909308008093070020910900B3
:10094000222319F081159240E8F080910600882357
:10095000C9F080910700909108009C012F5F3F4FE4
:1009600030930800209307008230924028F40E94C0
:10097000B302EFCF8DE0BDCF90E080E00E94A102F6
:1009800010920600C0920001D0920101E092020193
:10099000F092030140916901412B4093690181E08C
:1009A0007BCF4F925F926F927F928F929F92AF9286
:1009B000BF92CF92DF92EF92FF920F931F93CF934C
:1009C000DF93EC01423051056105710590F480E040
:1009D000DF91CF911F910F91FF90EF90DF90CF901B
:1009E000BF90AF909F908F907F906F905F904F904F
:1009F000089589859A85AB85BC850196A11DB11D99
:100A000084179507A607B70710F3CB88DC88ED8815
:100A1000FE888F89803109F042C0BB27A72F962F0F
:100A2000852F480159012A013B01C80ED91EEA1E33
:100A3000FB1E8091000190910101A0910201B091F3
:100A40000301C816D906EA06FB0699F58F8980319D
:100A5000C1F5B301A201552766277727440F551F1B
:100A600042595E4FFA0191828082809169018160D2
:100A7000809369018A89823080F08D819E81AF8167
:100A8000B8858C0D9D1DAE1DBF1D80936A0190938E
:100A90006B01A0936C01B0936D0181E099CFDB01F4
:100AA000CA01E7E0B695A79597958795EA95D1F79E
:100AB000B8CF40E0C701B6010E94F1038111C6CF53
:100AC00086CFB301A2014F77552766277727440FBA
:100AD000551F440F551F42595E4FFA018082918283
:100AE000A282B382C2CF8F929F92AF92BF92CF92D7
:100AF000DF92EF92FF920F931F93CF93DF93FC014E
:100B000081859285A385B4850196A11DB11D8417A9
:100B10009507A607B70770F480E0DF91CF911F918A
:100B20000F91FF90EF90DF90CF90BF90AF909F908C
:100B30008F90089583889488A588B68887898031A6
:100B400089F5BB27A72F962F852FE9016A017B0125
:100B50008F01BC01CD01680D791D8A1D9B1D809000
:100B6000000190900101A0900201B090030186164F
:100B70009706A806B90601F5F8018789803111F5B5
:100B8000DD24EE24FF24F601EE0FFF1FE259FE4F95
:100B900080819181B0E0A0E088839983AA83BB83A0
:100BA00081E0BBCFDB01CA01C7E0B695A795979559
:100BB0008795CA95D1F7C9CF40E00E94F103811112
:100BC000DBCFAACFE894C7F8DD24EE24FF24F6019A
:100BD000EE0FFF1FEE0FFF1FE259FE4F8081918144
:100BE000A281B381BF70D8CF8F929F92AF92BF92F4
:100BF000CF92DF92EF92FF920F931F93CF93DF93E9
:100C0000EC018D8181110EC080E0DF91CF911F91A9
:100C10000F91FF90EF90DF90CF90BF90AF909F909B
:100C20008F9008950B891C892D893E89041715071B
:100C30002607370748F34A015B01823031F48A8680
:100C40009B86AC86BD8681E0E0CF81149104A1042F
:100C5000B10449F41E821F82188619861A861B86E3
:100C60001C861D86F0CF0A851B852C853D85EB8D66
:100C7000FC8D858590E00996B901A8014150510984
:100C800061097109082E04C07695679557954795B7
:100C90000A94D2F775016401E1E0CE1AD108E108A7
:100CA000F10804C0F694E794D794C7948A95D2F7D4
:100CB000C416D506E606F70620F0012B022B032BFF
:100CC00011F58F89988DA98DBA8D8E839F83A88702
:100CD000B9878E010A5F1F4FC114D104E104F104EA
:100CE00009F4ADCF4E815F816885798598018B8D40
:100CF0009C8D0E94730591E0C91AD108E108F108A2
:100D00008111EACF81CFC41AD50AE60AF70AE1CFEA
:100D10003F924F925F926F927F928F929F92AF928B
:100D2000BF92CF92DF92EF92FF920F931F93CF93D8
:100D3000DF93CDB7DEB72C970FB6F894DEBF0FBEAA
:100D4000CDBF5C01DC015B968D909C905C97169604
:100D50004D905D906D907C90199741145104610401
:100D6000710409F468C0BFEF4B1A5B0A6B0A7B0A77
:100D7000312CF40181859285A385B4859C01AD0158
:100D80002F5F3F4F4F4F5F4F29873A874B875C87D5
:100D9000730162011D821E821F821886F401818503
:100DA0009285A385B4852D813E814F815885281772
:100DB00039074A075B0708F056C089859A85AB85D5
:100DC000BC858C159D05AE05BF0550F482E0C82E8C
:100DD000D12CE12CF12C92E0492E512C612C712C5C
:100DE0009E012F5F3F4FB701A601C4010E9473050A
:100DF0008823C9F189819A81AB81BC81892B8A2B97
:100E00008B2B09F1260137019FEF491A590A690A0C
:100E1000790A2D813E814F8158852F5F3F4F4F4F7B
:100E20005F4F2D833E834F8358873FEFC31AD30A0A
:100E3000E30AF30AB3CFF4014080518062807380EB
:100E40003324339496CFC414D504E604F70409F789
:100E50000FEF1FEF2FEF3FE0B701A601C4010E9483
:100E6000D104811119C080E02C960FB6F894DEBF32
:100E70000FBECDBFDF91CF911F910F91FF90EF90EB
:100E8000DF90CF90BF90AF909F908F907F906F90AA
:100E90005F904F903F900895D50116964D915D91CA
:100EA0006D917C911997411551056105710539F0D6
:100EB00097018601C4010E94D1048823A1F2D501C3
:100EC0001696CD92DD92ED92FC921997332051F057
:100ED000D701C6010196A11DB11DF4018083918344
:100EE000A283B383F5018789908DA18DB28D892B63
:100EF0008A2B8B2B39F48481C78AD08EE18EF28EB7
:100F000080688483F50184818062848381E0ACCF32
:100F10001F93CF93DF93EC01162F8C8187FF2AC09C
:100F20006E857F858889998941E00E94F103882335
:100F300061F1EA8980E2E89FF0011124E259FE4F55
:100F4000309719F18D81823040F48B899C89AD896D
:100F5000BE89848F958FA68FB78F8F89988D938F39
:100F6000828F8F89988DA98DBA8DB58BA48B8C813A
:100F70008F778C83111103C08C818F7E8C83812F9E
:100F8000DF91CF911F910C94C80380E0DF91CF9146
:100F90001F9108951F93CF93DF93EC018D818130D2
:100FA00031F090E080E0DF91CF911F9108958C8126
:100FB00081FFF7CF82FD1BC090E080E00E948F028E
:100FC0000E94B302182F90E080E00E94A1021F3F10
:100FD00041F78C8185FF1EC08D81882321F060E060
:100FE000CE010E9488078C818F7D8C83DACF4B895C
:100FF0005C896D897E898A859B85AC85BD858417D2
:101000009507A607B707C1F2CE010E94F40581112A
:10101000D3CFC7CF40916A0150916B0160916C01B1
:1010200070916D01452B462B472B21F080E00E94EB
:10103000A603B7CF80618C832A853B85317080E021
:1010400092E0821B930BAFCF9F92AF92BF92CF9251
:10105000DF92EF92FF920F931F93CF93DF9300D015
:1010600000D01F92CDB7DEB78C016D83DC011596E1
:101070008C911597813009F0B9C014968C9181FF3D
:10108000B5C082FD9FC0D8015B96ED91FC915C9745
:101090001A96AD90BD90CD90DC901D9794809A9457
:1010A000B601A50189E076956795579547958A958C
:1010B000D1F79422B1E0BB22992009F49FC0D80156
:1010C0005B96ED91FC915C971696CD90DD90ED903E
:1010D000FC901997B2E0CB1AD108E108F108858598
:1010E00004C0CC0CDD1CEE1CFF1C8A95D2F7468593
:1010F000578560897189C40ED51EE61EF71EC90C7E
:10110000D11CE11CF11CA114B10409F00AC1F801C1
:10111000428553856485758583899489A589B689B7
:10112000481759076A077B0708F4FBC081E00E9453
:10113000C803882309F45AC0C0920001D09201016B
:10114000E0920201F0920301809169018160809335
:101150006901F501E259FE4F8D818083F801828596
:101160009385A485B5850196A11DB11D82879387BE
:10117000A487B587438954896589768948175907B3
:101180006A077B0738F42481838B948BA58BB68BFD
:1011900020682483D80114968C9183FD9FC081E040
:1011A00090E00F900F900F900F900F90DF91CF91E4
:1011B0001F910F91FF90EF90DF90CF90BF90AF9075
:1011C0009F900895F80143895489658976898285BD
:1011D0009385A485B585481759076A077B0709F4E5
:1011E00052CFC8010E94F40581114DCF81E090E0FB
:1011F000D80113969C938E93129749C0D8011696E6
:101200004D915D916D917C911997A114B10409F0F4
:1012100071C0411551056105710589F557968D918C
:101220009D910D90BC91A02D0097A105B10509F0ED
:101230004FC0C8010E9488068823C1F2D8015B967E
:10124000ED91FC915C971696CD90DD90ED90FC9021
:101250001997B2E0CB1AD108E108F108858504C0DE
:10126000CC0CDD1CEE1CFF1C8A95D2F746855785F9
:1012700060897189C40ED51EE61EF71E48CF9E01F7
:101280002F5F3F4FCF010E947305811103C090E093
:1012900080E087CF89819A81AB81BC81F801238D61
:1012A000348DF901278948EF5FEF60E070E020316D
:1012B00021F048EF5FEF6FEF7FE084179507A607F7
:1012C000B70730F0C8010E9488068111F8CE8ECF92
:1012D000F80186839783A087B187F1CEF8018581D5
:1012E000882309F483CF61E0C8010E948807811137
:1012F00056CF7CCF6A017B01B2E0CB1AD108E1085E
:10130000F108858504C0CC0CDD1CEE1CFF1C8A9501
:10131000D2F74685578560897189C40ED51EE61EB1
:10132000F71E41E0C701B6010E94F103811111CF00
:101330005DCF08958F929F92AF92BF920F931F93AC
:10134000CF93DF93CDB7DEB7A1970FB6F894DEBF8A
:101350000FBECDBF19A2423008F44AE08E010F5DE6
:101360001F4F842E912CB12CA12CA50194010E9419
:10137000DE0FE62FB901CA01EA3044F5E05DD8017D
:10138000EE938D01232B242B252B79F790E080E021
:10139000109769F0FD0101900020E9F73197AF0146
:1013A0004A1B5B0BBD018AEA93E00E948700A1966D
:1013B0000FB6F894DEBF0FBECDBFDF91CF911F9166
:1013C0000F91BF90AF909F908F900895E95CD7CF19
:1013D000CF92DF92EF92FF92CF93DF936B017C016C
:1013E0006DE28AEA93E00E942701EC0166277727E5
:1013F000CB016C197D098E099F094AE00E949A0968
:101400008C0F9D1FDF91CF91FF90EF90DF90CF90D9
:101410000895FC0101900020E9F73197AF01481BC6
:10142000590BBC018AEA93E00C9487001F920F923B
:101430000FB60F9211242F933F934F935F936F93A7
:101440007F938F939F93AF93BF93EF93FF938AEA1A
:1014500093E00E940501FF91EF91BF91AF919F91A1
:101460008F917F916F915F914F913F912F910F904D
:101470000FBE0F901F9018951F920F920FB60F92EC
:1014800011242F938F939F93EF93FF93E091BA03CF
:10149000F091BB038081E091C003F091C10382FD14
:1014A0001BC090818091C3038F5F8F732091C40311
:1014B000821741F0E091C303F0E0E655FC4F958FB1
:1014C0008093C303FF91EF919F918F912F910F9084
:1014D0000FBE0F901F9018958081F4CF1F920F922E
:1014E0000FB60F9211242F933F938F939F93AF9337
:1014F000BF938091A6039091A703A091A803B091F8
:10150000A9033091700323E0230F2D3758F501967E
:10151000A11DB11D209370038093A6039093A70390
:10152000A093A803B093A9038091710390917203D3
:10153000A0917303B09174030196A11DB11D809316
:10154000710390937203A0937303B0937403BF91DC
:10155000AF919F918F913F912F910F900FBE0F9060
:101560001F90189526E8230F0296A11DB11DD2CF1A
:101570001F920F920FB60F9211242F933F934F9308
:101580005F936F937F938F939F93AF93BF93EF93EB
:10159000FF93E0910601F09107010995FF91EF910A
:1015A000BF91AF919F918F917F916F915F914F917B
:1015B0003F912F910F900FBE0F901F9018951F9283
:1015C0000F920FB60F9211242F933F934F935F9377
:1015D0006F937F938F939F93AF93BF93EF93FF93FB
:1015E000E0910401F09105010995FF91EF91BF9100
:1015F000AF919F918F917F916F915F914F913F91AB
:101600002F910F900FBE0F901F9018951F920F9261
:101610000FB60F9211240F900FBE0F901F901895C8
:10162000EAEAF3E01382128288EE93E0A0E0B0E0F1
:1016300084839583A683B78388E191E09183808337
:1016400085EC90E09587848784EC90E09787868787
:1016500080EC90E0918B808B81EC90E0938B828B7F
:1016600082EC90E0958B848B86EC90E0978B868B58
:10167000118E128E138E148EE7E4F4E080E58083E1
:101680001182E9E4F4E0158216821186138682E065
:1016900090E0A0E0B0E084879587A687B78713A283
:1016A00015A614A68AE291E093A782A717A6E2ECFA
:1016B000F4E0108283E0818322E331E033832283EC
:1016C000158214821186108613861286178216825E
:1016D000E6EBF4E0108295E0918325E331E033837B
:1016E0002283158214821186108613861286178231
:1016F0001682EAEAF4E0808394E0918328E331E003
:1017000033832283158214821186108613861286F3
:1017100017821682EEE9F4E0108211822BE331E0A9
:1017200033832283158214821186108613861286D3
:1017300017821682E2E9F4E08083118281E491E06D
:1017400093838283158214821186108613861286F3
:10175000178216820895789484B5826084BD84B51A
:10176000816084BD85B5826085BD85B5816085BD9C
:1017700080916E00816080936E0010928100809154
:1017800081008260809381008091810081608093DC
:101790008100809180008160809380008091B10001
:1017A00084608093B1008091B00081608093B0002C
:1017B00080917A00846080937A0080917A008260C0
:1017C00080937A0080917A00816080937A00809182
:1017D0007A00806880937A001092C100E091BA0389
:1017E000F091BB03D2E0D083E091B603F091B70350
:1017F0001082E091B803F091B9038FEC80831092CE
:10180000C203E091BE03F091BF03C6E0C083E09144
:10181000BC03F091BD03808180618083E091BC03B3
:10182000F091BD03808188608083E091BC03F091DA
:10183000BD03808180688083E091BC03F091BD038B
:1018400080818F7D808364EF71E080E090E00E9472
:10185000410287E491E00E94090A0E9474010E94FB
:1018600074010E9474018AEA93E00E947901E09178
:10187000BC03F091BD0380818F7E8083E091BC0327
:10188000F091BD038081877F8083E091BC03F0915C
:10189000BD0380818F778083E091BC03F091BD030D
:1018A00080818F7D80838091C4038093C303E09106
:1018B000BA03F091BB03D083E091B603F091B70374
:1018C0001082E091B803F091B90380E18083109217
:1018D000C203E091BE03F091BF03C083E091BC035B
:1018E000F091BD03808180618083E091BC03F09121
:1018F000BD03808188608083E091BC03F091BD03CB
:10190000808180688083E091BC03F091BD03808179
:101910008F7D808383E792E09093CB048093CA0409
:101920001092CD041092CC048CE792E09093BF0407
:101930008093BE041092C1041092C00485E892E026
:101940009093B3048093B2041092B5041092B4043F
:10195000E6EAF0E02491E2E9F0E084918823C1F026
:1019600090E0880F991FFC01EA57FF4FC591D49171
:10197000FC01E458FF4FA591B4919FB7F89488817A
:10198000E22FE0958E2388838C91E823EC939FBF10
:101990008AE092E0909305018093040180916900B0
:1019A000836080936900E89A91E9C92E93E0D92E6B
:1019B0002FE0822E912CA12CB12C0AE010E03AE00D
:1019C000632E40E4742E50E0E52E50E0F52EF8949E
:1019D0008091A2039091A3039093A1038093A0030D
:1019E0007894C091A003D091A10368EC70E080E0EE
:1019F00090E00E944102A5E7B3E0FD01828193815E
:101A000081939193CE16DF06C9F7D0939203C093CA
:101A1000910360E070E0CB012D913D911901330FEE
:101A200044085508620D731D841D951D23E0A339DC
:101A3000B20791F7A50194010E940010C901B801F5
:101A40000E94CA0F669EE001679ED00D112480910E
:101A50009503882331F0109294031092930310920F
:101A60009503809194038823B1F083E591E00E946F
:101A7000090A9E01220F331FB901032E000C880BA7
:101A8000990B37FFC1C00E94E8090E9474010E94AF
:101A900074010E94740180919303882399F083E577
:101AA00091E00E94090ABE010D2E000C880B990BD3
:101AB000D7FFAEC00E94E8090E9474010E94740121
:101AC0000E9474018BE591E00E94090A70927C00EB
:101AD00080917A00806480937A0080917A0086FDFC
:101AE000FCCF8091780060917900762F682F072EC7
:101AF000000C880B990B0E942E0E25E733E948E96C
:101B00005BE30E94690E24E73EE543E450E40E9453
:101B1000690E20E030E040E251E40E94690E20E0CE
:101B200030E040E050E40E94270F0E94940F072EFF
:101B3000000C880B990B97FF6FC00E94E8090E9468
:101B400074010E9474010E9474018AEA93E00E9469
:101B5000E500181619060CF073C06AE070E080E02A
:101B600090E00E9441028AEA93E00E94C300C82FDD
:101B7000853659F78AEA93E00E94E50006972CF330
:101B8000C0939603C7E9D3E08AEA93E00E94C300BA
:101B9000899383E0CD39D807B9F710929D038091DE
:101BA0009A038F3F91F680919B038F3F71F680914E
:101BB0009C038F3F51F69091980320919703E8E0A2
:101BC000F1E0A191B191109709F4BFCF8C91281346
:101BD000F8CF11968C9111979813F3CF40919903F8
:101BE00050E070E060E04130510561057105C1F4DD
:101BF0001496ED91FC911597309709F4A6CF16969F
:101C00008D919C910995A1CF4AE00E949A093DCF00
:101C10004AE00E949A0950CF4AE00E949A098FCF69
:101C2000452B462B472B09F090CF1896ED91FC9150
:101C30001997309709F489CF1A968D919C91E2CF2C
:101C4000E114F10409F4C3CE0E94F100882309F4E1
:101C5000BECE0E940000BBCEE89409C097FB3EF4C4
:101C600090958095709561957F4F8F4F9F4F9923E9
:101C7000A9F0F92F96E9BB279395F6958795779567
:101C80006795B795F111F8CFFAF4BB0F11F460FF27
:101C90001BC06F5F7F4F8F4F9F4F16C0882311F07F
:101CA00096E911C0772321F09EE8872F762F05C093
:101CB000662371F096E8862F70E060E02AF09A952E
:101CC000660F771F881FDAF7880F9695879597F923
:101CD00008950E947C0E0C94ED0E0E94DF0E38F0E9
:101CE0000E94E60E20F0952311F00C94D60E0C9471
:101CF000DC0E11240C94210F0E94FE0E70F3959FB0
:101D0000C1F3950F50E0551F629FF001729FBB27F2
:101D1000F00DB11D639FAA27F00DB11DAA1F649F8E
:101D20006627B00DA11D661F829F2227B00DA11D41
:101D3000621F739FB00DA11D621F839FA00D611DC7
:101D4000221F749F3327A00D611D231F849F600DE8
:101D5000211D822F762F6A2F11249F5750409AF011
:101D6000F1F088234AF0EE0FFF1FBB1F661F771F9D
:101D7000881F91505040A9F79E3F510580F00C9468
:101D8000D60E0C94210F5F3FE4F3983ED4F3869572
:101D900077956795B795F795E7959F5FC1F7FE2B08
:101DA000880F911D9695879597F9089597F99F67E4
:101DB00080E870E060E008959FEF80EC08950024D3
:101DC0000A941616170618060906089500240A94A0
:101DD00012161306140605060895092E0394000C26
:101DE00011F4882352F0BB0F40F4BF2B11F460FFB5
:101DF00004C06F5F7F4F8F4F9F4F089557FD9058DE
:101E0000440F551F59F05F3F71F04795880F97FBBE
:101E1000991F61F09F3F79F0879508951216130678
:101E20001406551FF2CF4695F1DF08C016161706A7
:101E30001806991FF1CF86957105610508940895DC
:101E4000E894BB2766277727CB0197F90895505868
:101E5000BB27AA270E943F0F0C94ED0E0E94DF0EB5
:101E600038F00E94E60E20F039F49F3F19F426F472
:101E70000C94DC0E0EF4E095E7FB0C94D60EE92FE3
:101E80000E94FE0E58F3BA1762077307840795077E
:101E900020F079F4A6F50C94200F0EF4E0950B2EAB
:101EA000BA2FA02D0B01B90190010C01CA01A001AC
:101EB0001124FF27591B99F0593F50F4503E68F107
:101EC0001A16F040A22F232F342F4427585FF3CF48
:101ED000469537952795A795F0405395C9F77EF419
:101EE0001F16BA0B620B730B840BBAF09150A1F062
:101EF000FF0FBB1F661F771F881FC2F70EC0BA0FE8
:101F0000621F731F841F48F4879577956795B7956F
:101F1000F7959E3F08F0B0CF9395880F08F099276A
:101F2000EE0F9795879508950E949B0F6894B111C5
:101F30000C94210F08950E94060F88F09F5798F087
:101F4000B92F9927B751B0F0E1F0660F771F881FBE
:101F5000991F1AF0BA95C9F714C0B13091F00E94D8
:101F6000200FB1E008950C94200F672F782F882759
:101F7000B85F39F0B93FCCF3869577956795B395FF
:101F8000D9F73EF490958095709561957F4F8F4F6E
:101F90009F4F089597FB072E16F4009407D077FD06
:101FA00009D00E941F1007FC05D03EF49095819542
:101FB0009F4F0895709561957F4F0895A1E21A2E65
:101FC000AA1BBB1BFD010DC0AA1FBB1FEE1FFF1FDD
:101FD000A217B307E407F50720F0A21BB30BE40B2D
:101FE000F50B661F771F881F991F1A9469F7609574
:101FF0007095809590959B01AC01BD01CF0108952E
:10200000052E97FB1EF400940E94171057FD07D071
:102010000E94DE0F07FC03D04EF40C94171050956D
:102020004095309521953F4F4F4F5F4F08959095C4
:102030008095709561957F4F8F4F9F4F0895AA1B94
:10204000BB1B51E107C0AA1FBB1FA617B70710F0A3
:10205000A61BB70B881F991F5A95A9F780959095D5
:10206000BC01CD010895EE0FFF1F0590F491E02D06
:062070000994F894FFCF73
:10207600FFFFFFFF8E028E02C204B604AA049E046E
:10208600920400000000000027018700B4007901D7
:10209600E500C300D7000000000024088700CA0737
:1020A6009909623100623200623000706167653101
:1020B60000706167653300626175643D31313532A8
:1020C6003030006E302E76616C3D0078302E7661B1
:0420D6006C3D00005D
:00000001FF
